:020000040800F2
:100000006022002025160008291600082B1600087B
:100010002D1600082F1600083116000800000000F9
:10002000000000000000000000000000331600087F
:1000300035160008000000003716000839160008C1
:100040003B1600083B1600083B1600083B1600084C
:100050003B1600083B1600083B1600083B1600083C
:100060003B1600083B1600083B1600083B1600082C
:100070003B1600083B1600083B1600083B1600081C
:100080003B1600083B1600083B1600083B1600080C
:100090003B1600083B1600083B1600083B160008FC
:1000A0003B1600083B1600083B1600083B160008EC
:1000B0003B1600083B1600083B1600083B160008DC
:1000C0003B1600083B1600083B1600083B160008CC
:1000D0003B160008210700083B1600083B160008E5
:1000E0003B1600083B1600083B16000800F002F81B
:1000F00000F02EF80AA090E8000C82448344AAF194
:100100000107DA4501D100F023F8AFF2090EBAE891
:100110000F0013F0010F18BFFB1A43F0010318473B
:100120003C1D00004C1D000000230024002500267B
:10013000103A28BF78C1FBD8520728BF30C148BF4A
:100140000B6070471FB501F0FCFD1FBD10B510BD61
:1001500001F08DFB1146FFF7F5FF01F07DFA01F08C
:10016000ABFB03B4FFF7F2FF03BC00F0CCFA0000D6
:100170000B48806940F01000094988614FF0333026
:10018000084908600846C0684FF6FF7108430549F2
:10019000C860704703490861C143024A5161704712
:1001A0000010024000100140BC48006840F001000F
:1001B000BA49086008464068B9490840B7494860EC
:1001C00008460068B7490840B44908600846006816
:1001D00020F4802008600846406820F4FE00486053
:1001E0004FF41F00886070472DE9F0410546002755
:1001F0000026382D15D006DC202D09D0282D0AD058
:10020000302D17D10AE0402D0ED0482D12D10EE02E
:100210004FF4002411E04FF440240EE04FF480141A
:100220000BE04FF4A01408E04FF4C01405E04FF4C5
:10023000E01402E0FF20BDE8F08100BFFFF7B4FF4B
:100240009648006820F480309449086008460068A9
:1002500040F48030086000BF9048006800F4003728
:10026000761C6FF07040864201D2002FF4D08B488C
:10027000006810F4003F4CD08B48006840F010003C
:10028000894908600846006820F0030008600846B5
:10029000006840F0020008608048406843F6F07152
:1002A00088437E4948600846406840F48060486062
:1002B0000846406820F4403048600846406840F4F2
:1002C000803048600846406820F470104860084656
:1002D0004068204348600846006840F0807008602D
:1002E00000BF6E48006810F0007FFAD06B4840688D
:1002F00020F00300694948600846406840F0020069
:10030000486000BF6548406800F00C000828F9D13B
:1003100003E0FFF749FFFF208DE700208BE707226E
:1003200022EA00010902614A0A43614B1A607047E0
:10033000F0B50346002000250F245D4E366806F414
:10034000E066C6F5E0664FEA1620C0F1040524FA1F
:1003500000F403FA05F001EA040646EA00004FEA59
:100360000010544EB05402F01F074FF0010606FA79
:1003700007F64FEA62174FF0E02C0CEB8707C7F83F
:100380000061F0BD00BF4820B0F1807F01D30120A3
:100390001BE047204FF0E021486100BF48170028CC
:1003A00006DA0F20000142490C310B22885404E088
:1003B0000F2000013F494A17885400BF00204FF02A
:1003C000E021886107200861002038B94FF0E02063
:1003D000006920F003004FF0E0210861704700EB56
:1003E000C0020123C3EBC2024FF0E0235A61002296
:1003F0009A611A46126942F001021A6100BF4FF079
:10040000E022116911F4803FF9D0126922F0010253
:100410004FF0E0231A617047274A4FF0E0235A61FA
:1004200000229A611A46126942F001021A6100BF65
:100430004FF0E022116911F4803F01D0421E90B2CA
:100440000028F5D14FF0E022126922F001024FF0AE
:10045000E0231A61704700EB800290B2174A4FF018
:10046000E0235A6100229A611A46126942F00102A1
:100470001A6100BF4FF0E022116911F4803F01D0F2
:10048000421E90B20028F5D14FF0E022126922F00E
:1004900001024FF0E0231A61704700000010024093
:1004A0000000FFF0FFFFF6FE002002400000FA050A
:1004B0000CED00E000E400E03F190100FFB9DB00B3
:1004C0004D48806940F040004B4988614B480068C6
:1004D0004B4900EA01004B49C1F800084748006851
:1004E000494940EA01004749C1F800080846D0F8E8
:1004F0000C0840F01C00C1F80C083F48806940F02F
:1005000004003D4988614148D0F8000820F00F0000
:100510003E49C1F800080846D0F8000840F008003D
:10052000C1F800080846D0F80C0820F00100C1F816
:100530000C087047002001E0411C88B245F6FF71AD
:100540008842F9DB704770B5002400253048006808
:1005500000F0010001280FD02E480068C0F3800091
:1005600050B12C480068C0F3C00028B12948006889
:10057000C0F3001000283CD1FFF7DCFF24480068DE
:1005800000F00100012801D1012415E02148006894
:10059000C0F3800008B904240EE01E480068C0F3D0
:1005A000C00008B9022407E01A480068C0F3001030
:1005B00008B9082400E00024DCB103E0FFF7BAFF2B
:1005C000681CC5B21248006800F0010001280ED076
:1005D00010480068C0F3800048B10E480068C0F3BE
:1005E000C00020B10B480068C0F3001008B9962D78
:1005F000E4DB204670BD00000010024000180140FE
:10060000FF00F0FF001001400088080000000140DA
:10061000080801400818014010B5252200210846AD
:10062000FFF786FE4748008840F010004649A1F8D1
:100630000C0810BD2DE9F0470546280101F08EFA9F
:1006400080460146414801F0A7F90646304601F0D0
:1006500065FA84B2204601F099FA8246314601F0EB
:100660007CFB81464FF0834101F0A4FA804601F003
:1006700055FA87B22005040CE01984B23448806929
:1006800044F204010843324988613248006820F48A
:100690007F603149C1F804080846D0F8040840F4E6
:1006A0000B60C1F804080846D0F80C0840F48060DC
:1006B000C1F80C082648C06840F480402449C8604E
:1006C0000846C06820F48040C8601F48A0F8084869
:1006D0001C48008842F20C0140EA010019490880D8
:1006E000FFF79AFFBDE8F08709E001781B4A118007
:1006F00000BF1B49098811F0400FFAD0401C017857
:100700000029F2D17047014600BF704700BF144A6C
:10071000128812F0400FFAD0C2B2104B1A80704704
:100720000F49098811F0200F0BD00C490988C8B275
:100730000549A1F8040800BF0949098811F0400FD4
:10074000FAD070470C380140003001404054894CC9
:10075000001002400408014000000140043801403C
:100760000038014070B504460D4616462B46224619
:100770002946204600F047FB304600F01EFA70BDC7
:100780002DE9F04704460D4616461F46DDF8208049
:10079000B44201DCBD4201DDBDE8F0873B46324694
:1007A0002946204600F02FFB301B401C84B2781BEA
:1007B000401C85B20BE0A94602E0404600F0FDF97E
:1007C0005FEA0900A9F101011FFA81F9F5D12000C2
:1007D000A4F101018CB2EED100BFDDE72DE9F041BB
:1007E00004460D4617466A1E91B2621E90B26A1CFC
:1007F00093B2621C92B200F006FB002604E0384679
:1008000000F0DBF9701CC6B2092EF8DB211F88B29C
:100810002B46211D8AB2294600F0F5FA002604E095
:10082000384600F0CAF9701CC6B2092EF8DB281F42
:1008300081B2281D83B22246204600F0E4FA002649
:1008400004E0384600F0B9F9701CC6B2092EF8DB96
:10085000BDE8F0812DE9FF4F89B005460F461446EB
:1008600000269FE02078802844DA2078A0F1200636
:100870003601814806441022314601A800F0A1FC4F
:1008800007F10F0083B2E81D82B23946284600F016
:10089000BAFA4FF000091FE001A810F809B04FF0B4
:1008A000000812E00BF08000802803D10C9800F0C3
:1008B00084F902E0169800F080F94FEA4B604FEAA5
:1008C000106B08F1010000F0FF08B8F1080FE9DB38
:1008D00009F1010000F0FF09B9F1100FDCDB641C25
:1008E00005F1080085B2E92D5CDD002507F1100057
:1008F00087B257E0207881381FFA80FABE200AFBC1
:1009000000F694F801A0BAF17F0F04DAAAF14000D2
:100910001FFA80FA03E0AAF141001FFA80FA564458
:100920007601564806442022314601A800F049FCD1
:1009300007F10F0083B205F10F0082B23946284655
:1009400000F061FA4FF000081FE001A810F808B0AD
:100950004FF0000912E00BF08000802803D10C98C2
:1009600000F02BF902E0169800F027F94FEA4B60EF
:100970004FEA106B09F1010000F0FF09B9F1080F0F
:10098000E9DB08F1010000F0FF08B8F1200FDCDB23
:1009900005F1100085B2E12D03DD002507F11000FF
:1009A00087B2A41C207800287FF45CAF0DB0BDE8AE
:1009B000F08F2DE9F04F91B00746884614469A46CD
:1009C000002653E02078813885B2BE2005FB00F672
:1009D00065787F2D03DAA5F1400085B202E0A5F12C
:1009E000410085B22E44C6EB8616254806443F22B8
:1009F0003146684600F0E5FB08F1140083B207F1C8
:100A0000170082B24146384600F0FDF94FF0000968
:100A10001EE01DF809B00020109012E00BF08000DD
:100A2000802803D1504600F0C8F802E01A9800F080
:100A3000C4F84FEA4B604FEA106B1098401CC0B2EC
:100A4000109010980828E9DB09F1010000F0FF0977
:100A5000B9F13F0FDDDB07F1150087B2DA2F04DDB6
:100A6000002708F115001FFA80F8A41C2078002840
:100A7000A8D111B0BDE8F08F4E465D00004C5D007E
:100A800082FC6800F948806940F4B070F7498861D9
:100A9000F748006820F00F00F54908600846006834
:100AA00040F00B0008600846406820F47020486061
:100AB0000846406840F430204860EE48006800F086
:100AC000FF20ED49C1F800040846D0F8000440F0CA
:100AD000BB10C1F800040846D0F804044FF0000031
:100AE000C1F804040846D0F8040440F0BB30C1F853
:100AF00004040846D0F8000820F07040C1F800084F
:100B00000846D0F8000840F03040C1F80008084618
:100B1000D0F804084FF00000C1F804080846D0F8E7
:100B2000040840F0BB30C1F804087047CF48406962
:100B300040F48070CD49486100204FF02041886129
:100B4000C861CE4908604FF02040806940F4805071
:100B50004FF0204188610846806940F480408861F8
:100B60000846806940F0100088610846C069C86185
:100B70000846C06940F00100C8610846C06940F4F9
:100B80007060C861BD480068C1F81C01BB480068BE
:100B9000C1F81C010846D0F81C0140F44070C1F8AF
:100BA0001C010846806940F0010088617047B44923
:100BB00008807047B34908807047B2490880704781
:100BC00000B503460A461846FFF7F1FF1046FFF747
:100BD000F1FF00BD10B5FFF755FFFFF7A7FF32206B
:100BE000FFF71AFC0020FFF7E2FF0020FFF7E2FF0B
:100BF0000020FFF7DCFF0020FFF7DCFF0020FFF7FD
:100C0000D6FF0020FFF7D6FF4FF48060FFF7CFFF3D
:100C10004FF4C440FFF7CEFF0820FFF7C8FF40F6AF
:100C20000800FFF7C7FF0120FFF7C1FF4FF48070F6
:100C3000FFF7C0FF0220FFF7BAFF4FF48070FFF705
:100C4000B9FF0320FFF7B3FF41F23000FFF7B2FF17
:100C50000820FFF7ACFF40F60800FFF7ABFF4FF4AA
:100C60004070FFF7A4FF0C20FFF7A4FF40F2013013
:100C7000FFF79DFF45F60B20FFF79CFF40F2023087
:100C8000FFF795FF40F60610FFF794FF40F20330A0
:100C9000FFF78DFF41F21700FFF78CFF4FF4417013
:100CA000FFF785FF4FF40C50FFF784FF40F205304B
:100CB000FFF77DFF4FF4B850FFF77CFF40F206309E
:100CC000FFF775FF46F20930FFF774FF40F2073077
:100CD000FFF76DFF40F60940FFF76CFF4FF44270DD
:100CE000FFF765FF41F20C00FFF764FF40F20930A7
:100CF000FFF75DFF42F23220FFF75CFF1020FFF7A5
:100D000056FF1420FFF756FF1120FFF750FF40F267
:100D10000110FFF74FFF4FF48070FFF748FF4FF4CB
:100D20000C70FFF747FF3220FFF776FB40F201100F
:100D3000FFF73DFF40F24720FFF73CFF3220FFF76F
:100D40006BFB40F20310FFF732FF4FF42060FFF718
:100D500031FF0A20FFF760FB4FF42070FFF727FFF9
:100D60004FF2FF00FFF726FF3220FFF755FB4FF44D
:100D70008170FFF71CFF4BF2B010FFF71BFF322012
:100D8000FFF74AFB4FF40470FFF711FF0020FFF755
:100D900011FF40F21120FFF70AFFEF20FFF70AFFD3
:100DA00040F21220FFF703FF0020FFF703FF40F29D
:100DB0001320FFF7FCFE40F28F10FFF7FBFE4FF40D
:100DC0000070FFF7F4FE0020FFF7F4FE40F2012070
:100DD000FFF7EDFE0020FFF7EDFE40F20140FFF7C8
:100DE000E6FE0020FFF7E6FE0720FFF7E0FE4FF4E7
:100DF0008070FFF7DFFE3220FFF70EFB40F202208B
:100E0000FFF7D5FE10BDF0B504460F4615461E4649
:100E100021464FF40470FFF7D3FE294640F211201B
:100E2000FFF7CEFE394640F21220FFF7C9FE3146E9
:100E300040F21320FFF7C4FE21464FF40070FFF785
:100E4000BFFE394640F20120FFF7BAFE40F2022011
:100E5000FFF7ADFEF0BD70B5064640F28F13EF22EE
:100E600000210846FFF7CFFF002419E000100240E0
:100E70000020014000140140001001401C0100A0AE
:100E8000FE07006C0008006C002504E03046FFF708
:100E900094FE681C85B2B5F5C87FF7DB601C84B290
:100EA000F02CF1DB70BD00000146002207E0501C71
:100EB00082B242F21070824201DDFF2070478D48FD
:100EC000008910F0020FF2D08A48818100BF894862
:100ED000008910F0010FFAD086488089C0B2EDE792
:100EE00000B58548806941F2040108438249886160
:100EF00082480068C0F313008149C1F800087F48A8
:100F00000068804940EA01007D49C1F800080846B0
:100F1000D0F80C0840F0E000C1F80C0875480088D3
:100F200020F48060734908800846008840F400700F
:100F300008800846008840F48070088008460088D1
:100F400040F0040008800846008820F40060088013
:100F50000846008840F0020008800846008840F0FB
:100F6000010008800846008840F0380008800846E4
:100F7000008820F0800008800846008840F040008B
:100F800008804FF0FF00FFF78FFF00BD01460022F1
:100F900007E0501C82B242F21070824201DDFF2055
:100FA00070475948008810F0020FF2D0574801806E
:100FB00000BF5548008810F0010FFAD05348008850
:100FC000C0B2EDE700B54C48806940F008004A49DE
:100FD00088610846C06940F48040C8614C48006898
:100FE000C0F313004649C1F8040C4948006845495C
:100FF00040EA01004249C1F8040C0846D0F80C0C44
:1010000040F46040C1F80C0C4248B0F8000820F4ED
:1010100080604049A1F800080846B0F8000840F494
:101020000070A1F800080846B0F8000840F480708D
:10103000A1F800080846B0F8000840F00400A1F844
:1010400000080846B0F8000820F40060A1F8000885
:101050000846B0F8000820F00200A1F80008084691
:10106000B0F8000820F00100A1F800080846B0F828
:10107000000840F03800A1F800080846B0F8000861
:1010800020F08000A1F800080846B0F8000840F001
:101090004000A1F800084FF0FF00FFF777FF00BD08
:1010A000144909884FF6C7721140124A118011463F
:1010B0000988014311801146098841F040011180DF
:1010C0007047154909884FF6C77201EA0201114AB3
:1010D000A2F800181146B1F8001841EA0001A2F880
:1010E00000181146B1F8001841F04001A2F80018AC
:1010F000704700000030014000100240000801402D
:10110000000001400000B0BB083800400C3800402F
:10111000040C0140003000400038004010B50024AD
:101120004FF40050CB494861400008618010CA4923
:1011300008604FF09000FFF729FF0020FFF726FF1F
:101140000020FFF723FF0020FFF720FFFF20FFF71D
:101150001DFF44EA0024FF20FFF718FF04434FF46B
:101160000050BC490861204610BD10B5BB488069DD
:1011700040F48470B9498861B648406820F07F60C7
:10118000B44948600846406840F04C7048604FF4ED
:10119000C0400861B248006820F47020B149C1F82D
:1011A000040C0846D0F8040C40F44030AC49086008
:1011B0004FF48050A8490860FFF704FFFFF7AEFF27
:1011C00010BD70B505460C4616460020FFF779FFA6
:1011D0004FF400509F4948614000086180109E49CB
:1011E00008604FF00300FFF7D1FEC4F30740FFF79C
:1011F000CDFEC4F30720FFF7C9FEE0B2FFF7C6FE3D
:1012000004E0FF20FFF7C2FE28706D1C3000A6F13D
:1012100001018EB2F5D14FF400508E49086170BDC6
:1012200070B5002500BF6D1CB5F1704F01D30020D3
:1012300070BD4FF40050874948614000086180103C
:10124000854908604FF00500FFF7A0FEFF20FFF77B
:101250009DFE04464FF400507E49086104F00100F1
:101260000128E0D00120E3E710B54FF400507949A0
:101270004861400008618010774908604FF006001F
:10128000FFF784FE4FF400507249086110BD10B59D
:101290000446FFF7E9FFFFF7C3FF4FF400506D4925
:1012A00048614000086180106B4908604FF02000E1
:1012B000FFF76CFEC4F30740FFF768FEC4F3072096
:1012C000FFF764FEE0B2FFF761FE4FF400506149A2
:1012D000086110BD10B5FFF7A3FFFFF7C5FF4FF47E
:1012E00000505C4948614000086180105A4908601C
:1012F0004FF0C700FFF74AFE4FF400505549086110
:10130000FFF78EFF10BD2DE9F04107460D4614464C
:10131000EEB2C6F58076B44200DC264638E0FFF730
:101320007FFFFFF7A1FF4FF400504A49486140009A
:1013300008618010484908604FF00200FFF726FE60
:10134000C5F30740FFF722FEC5F30720FFF71EFE97
:10135000E8B2FFF71BFE4FF0000807E03878FFF710
:1013600015FE7F1C08F101001FFA80F8B045F5DB7F
:101370004FF4005037490861B44200D109E03544C8
:10138000A01B84B2FF2C02DD4FF4807600E02646DD
:10139000C5E700BFBDE8F0812DE9F04781460F4663
:1013A00016460020FFF78DFEC7F30F38C7F30B0A70
:1013B000CAF58054A64200DA344647E04FEA0831C5
:1013C0004FF480522848FFF7FCFE002508E00AEBA6
:1013D00005002549085CFF2800D003E0681C85B2A1
:1013E000A542F4DB00BFA54217DA4FEA0830FFF749
:1013F0004EFF002507E019F805000AEB05011A4A1F
:101400005054681C85B2A542F5DB4FEA08314FF411
:1014100080521548FFF777FF04E0224639464846D8
:10142000FFF771FFB44200D111E0A1442744301B03
:1014300086B208F101001FFA80F84FF0000AB6F5F5
:10144000805F02DB4FF4805400E03446B6E700BF13
:10145000BDE8F08700200140100C01400010024060
:10146000040C0140000001400000002001684FF61C
:10147000FE72114001600021016041608160C16025
:101480006349884208D162490839496841F00F012F
:101490005F4A083A516088E05D491431884208D1BA
:1014A0005B490839496841F0F001594A083A5160EE
:1014B0007BE057492831884208D1554908394968A5
:1014C00041F47061524A083A51606EE050493C3133
:1014D000884208D14E490839496841F470414C4A64
:1014E000083A516061E04A495031884208D1484980
:1014F0000839496841F47021454A083A516054E07E
:1015000043496431884208D141490839496841F466
:1015100070013F4A083A516047E03D4978318842BE
:1015200008D13B490839496841F07061384A083AA6
:1015300051603AE03749884208D1A0F104010968B6
:1015400041F00F01344AC2F804142EE0314914313D
:10155000884207D13149096841F0F0012E4AC2F8AA
:10156000041422E02B492831884207D12B4909680D
:1015700041F47061284AC2F8041416E025493C3150
:10158000884207D12549096841F47041224AC2F8CE
:1015900004140AE01F495031884206D11F490968E6
:1015A00041F470211C4AC2F80414704770B5044617
:1015B0000D4616461A48406940F001001849486136
:1015C0002046FFF753FFA560E6606360206840F0A7
:1015D000100020602068206020682060206840F0B3
:1015E000800020602068206020682060206840F42F
:1015F000805020602068206070BD026822F00102E7
:1016000002604160026842F001020260704700001F
:1016100008000240080402400000024004040240A6
:101620000010024008480047FEE7FEE7FEE7FEE73D
:10163000FEE7FEE7FEE7FEE7FEE7FEE703480449B4
:10164000024A044B70470000ED00000860200020B3
:1016500060220020602000200EB500200190029042
:101660004820FEF7C1FDFFF7B5FAFFF77EFDFEF754
:101670007FFDFEF725FF4FF41650FEF7DBFF5649BE
:101680008B14564A5648FFF791FF0020FFF7E3FB03
:10169000002300934FF4784352A200215020FFF71B
:1016A00088F9002300934FF4784351A215215A2062
:1016B000FFF7D0F8002300934FF478434EA22A217D
:1016C0003C20FFF7C7F8002300934FF478434EA265
:1016D0003F213C20FFF7BEF8002300934FF47843EE
:1016E0004DA254210020FFF7B5F8002300931F23DB
:1016F0004CA269210020FFF7ADF8002403E0392057
:1017000036490855641CB4F5805FF8D363E0641C67
:10171000B4F5C06F08D30024FE2E01D1FF2600E0EF
:10172000FE263046FEF736FDFEF70DFF01280BD1F1
:101730004A48008840F080004949A1F814084FF455
:1017400080512748FFF759FF25484438006810F4B6
:10175000005F07D022484438006840F40050204918
:10176000443908601E484438806C85B2642105FB0A
:1017700001F0C11700EB11510D134FF47A7095FB76
:10178000F0F100FB1150642190FBF1F03030C0B259
:101790008DF80400642095FBF0F100FB11500A2144
:1017A00090FBF1F03030C0B28DF805000A2095FBB7
:1017B000F0F100FB11503030C0B28DF8060025204A
:1017C0008DF80700002300934FF4784301AA5421B9
:1017D0005020FFF73FF89AE704380140001000203E
:1017E00044000240C6D5D6D0BFC6BCBC0000000035
:1017F0005052454348494E007777772E70726563A3
:1018000068696E2E636F6D00444D41B4AEBFDAB7A8
:10181000A2CBCDCAB5D1E900B7A2CBCDCAA3D3E044
:10182000A3BA0000C9CFBCFCA3BA444D41B4AEBFBB
:10183000DAB7A2CBCDB2E2CAD4D0C5CFA2A3ACD284
:10184000B2BECDCAC734303936B8F6D7D6BDDAB550
:10185000C4A1B039A1B1A1A3000000001438014017
:1018600000300140704770477047704770477546B9
:1018700000F028F8AE4605006946534620F0070000
:10188000854618B020B5FFF7D9FEBDE820404FF0DF
:1018900000064FF000074FF000084FF0000B21F05A
:1018A0000701AC46ACE8C009ACE8C009ACE8C00927
:1018B000ACE8C0098D4670470446AFF3008020466F
:1018C000FEF74FFC0048704700200020004870479A
:1018D0000420002090EA010F48BF81F0004100F190
:1018E0004E82421A3CBF801A89184FEAD0524FF0FC
:1018F0007F4C1CEA410FA2EBD15318BF9CEA026F48
:1019000000F03B804FF0004C4CEA00204CEA0121F3
:1019100021FA03FC10EB0C0C1ED202F1FF325FEA3D
:101920001C2040EBC25038BF70471CF07F0F4FEABD
:10193000400C18BFBCF17F4F38BF7047C3F1200384
:10194000994008BF20F00100BCF17F4F38BF7047BD
:10195000A0F1C04000F0FCB94FEA3C00000A40EBA7
:10196000C25028BF1CF0FF0F4FEA400CE6D018BF52
:10197000BCF17F4F38BF7047EAE79CEA026F05D0A1
:1019800010EA5C0F08BF00F00040704710B500F08F
:1019900092F900BF64FBBE3E4FF47F0C1CEAD012EC
:1019A0001EBF1CEAD11392EA0C0F93EA0C0F00F051
:1019B000858090EA010F48BF42F4807240F4000C29
:1019C00041F400002CF07F4120F07F4000B58142BF
:1019D000A2EB03020FF2081CACEB504EC0F100006A
:1019E0009EF800E04FEA4E0E00FB0EFC38BF4900A7
:1019F0004FEA2C1C02F5FA020CFB0EF34FEACE1E46
:101A00004FEA112C4FEAC1210EEB635E42EB2242FA
:101A10000EFB0CFC4FEA1C5300FB03114FEA112C88
:101A20004FEA01310EFB0CFC4FEADC4C00FB0C11C1
:101A3000C14228BF09184CEB03335DF804EB10EBEF
:101A4000410143EBC250B2F57C0F38BF704729D536
:101A500012F0F00F1CBF00F1C04000F000407047D2
:101A6000008182838485868788898B8C8D8E8F9177
:101A70009293959697999A9C9D9FA0A2A3A5A7A89B
:101A8000AAACAEB0B2B3B5B7B9BCBEC0C2C5C7C9C7
:101A9000CCCED1D4D7D9DCDFE2E6E9ECF0F3F7FA2B
:101AA000FE0000004FEA400C0CF1807CBCF17E4F40
:101AB00028BF7047B0F1C04000F04AB990EA010F6A
:101AC0000CEAD11348BF42F48072624538BF6345C7
:101AD00007D213F47F0F16D080EA010000F0004017
:101AE000704710B500F0E7F8097EFC3E00F005B83D
:101AF00080EA010000F00040704780EA010000F039
:101B0000004000F025B912F47F0F04BF024870476F
:101B100080EA010000F01CB90000C07FC10DD1F1C6
:101B20009E0206DB4FEA002343F0004323FA02F053
:101B30007047004207D54FEA4001B1F1FE4F02D293
:101B40004FF00000704710B500F0B5F849922480BE
:101B5000002070476FEA20007047000010F000413D
:101B600048BF4042B0FA80F310FA03F2C3F19D037C
:101B70000BD051EAC35101EB1220530638BF704716
:101B800000F1010008BF20F001007047B0FA80F3B7
:101B900010FA03F2C3F19D030AD0D90501EB12201C
:101BA000530638BF704700F1010008BF20F0010064
:101BB000704700004FF47F0C1CEAD0121EBF1CEAD5
:101BC000D11392EA0C0F93EA0C0F00F0478090EAD1
:101BD000010F48BF42F480724FF0004C4CEA0020E5
:101BE0004CEA012102EB0302A0FB0113A2F5000263
:101BF000002918BF43F001035B0028BF4FEA3303FD
:101C000042EB22425FEA132C4CEBC2502EBFBCEBDE
:101C1000436FB2F57C0F70474FEA036CBCF1004F85
:101C200008BF20F00100B2F57C0F38BF70470BD51C
:101C300082F0FF0212F5803FC8BF704700F1C0403C
:101C4000D8BF00F00040704700F5000C5FEA4C0C74
:101C500048BF7047B0F1C04000F07AB890EA010F79
:101C60000CEAD11348BF42F48072624538BF634525
:101C700004D280EA010000F00040704710B500F087
:101C80001AF800BF8900013E00F007B800F009B85B
:101C90005FEA410C5FEA1C6C08D080EA010000F0AA
:101CA00057B85FEA400C5FEA1C6CF6D14FF0004079
:101CB000A0F5800070470EF1020E2EF0030E5EF8C4
:101CC000044B244204D44FEA4102B2F17F4F11D8B1
:101CD0004FEA4003B3F17F4F0CD80ED14FEAD07CCE
:101CE000B2F17F4F0CEB4C0C0CF1020C08BF4CEB2B
:101CF000D17C04E04FF0080C01E04FEAD17C0CEB02
:101D00004C0324FA03F404F00704B4F1040C06D2E3
:101D10000EEB840CBDE810404CF0010C6047DFE88E
:101D20000CF0070802024FF00040A0F5800010BD43
:101D30000846420018BFD2F1807288BF00F0004010
:101D400010BD10B5FFF7C2FD4FF00001016010BDDE
:101D5000FF2141EAD050C005704780F0004090EA72
:101D6000010F7FF5BEAD81F0004100F008B8000022
:101D700090EA010F48BF81F000413FF5B2AD421A31
:101D800004D882F00042A0EB020011444FEAD05286
:101D90004FF07F4C1CEA410FA2EBD15318BF9CEAD5
:101DA000026F4AD04FF0004C4CEA00204CEA01216F
:101DB00021FA03FCB0EB0C0C0FD412F0FE0F36D05E
:101DC0005FEA4C001DD5001240EBC25038BF70478F
:101DD0001CF03F0F18BF70470BE0A2F101025FEA51
:101DE0001C2040EBC25038BF70471CF07F0F18BF5B
:101DF0007047C3F12003994014BF401E20F001003A
:101E0000704780084FEA122308BF7047B0FA80FC81
:101E1000A2EB0C02CCF1280C60FA0CF093EA122F22
:101E200004BF00EBC25070474FEAC3707047130AFB
:101E30005FEADC1008BF7047F6E79CEA026F04D047
:101E400010EA5C0F08BF0020704710B5FFF733FFA2
:101E500040DFF63E81F00040704700006C1E000835
:0C1E6000000000206022000028010008A3
:04000005080000ED02
:00000001FF
